:020000040800F2
:100000007C0A00207D030008D9030008D9030008FA
:10001000D9030008D9030008D90300080000000034
:10002000000000000000000000000000D9030008EC
:10003000D903000800000000D903000821070008C8
:10004000D9030008D9030008D9030008D903000820
:10005000D9030008D903000849040008D90300089F
:10006000D9030008393F0008D9030008D903000864
:10007000D9030008D9030008D9030008D9030008F0
:10008000D9030008D9030008D9030008D9030008E0
:10009000D9030008D9030008D9030008D9030008D0
:1000A000D9030008D9030008D9030008D9030008C0
:1000B000D9030008D9030008D9030008D9030008B0
:1000C000D9030008D9030008D9030008D9030008A0
:1000D000D9030008D9030008D9030008D903000890
:1000E000D9030008D9030008D9030008D903000880
:1000F000D9030008D9030008D9030008D903000870
:10010000D9030008D9030008D9030008D90300085F
:10011000D9030008D9030008B9020008D903000870
:10012000D9030008D9030008D9030008D90300083F
:10013000D9030008D9030008D9030008D90300082F
:10014000D9030008D9030008D9030008D90300081F
:10015000D9030008D9030008D9030008D90300080F
:10016000D9030008D9030008D9030008D9030008FF
:10017000D9030008D9030008D9030008D9030008EF
:10018000D9030008D903000880B483B000AF034648
:10019000FB71084B97F907205209F97901F01F010B
:1001A000012000FA01F143F822100C37BD465DF83A
:1001B000047B704700E100E080B483B000AF0346E9
:1001C0003960FB7197F90730002B0BDA0D49FB7989
:1001D00003F00F03043B3A68D2B21201D2B20B44CF
:1001E0001A7609E0084997F907303A68D2B2120145
:1001F000D2B20B4483F800230C37BD465DF8047B74
:10020000704700BF00ED00E000E100E080B400AF07
:10021000034B1B881846BD465DF8047B704700BF42
:100220001400002080B586B000AF0346FB8010208C
:10023000012100F04BFC1C4804F0B2F90023BB8202
:100240000023FB81194B1A68194BA3FB02139B0B6C
:100250009BB2BB81FB8842F2107292FBF3F33B61CD
:1002600007F10C031048194604F078FA0E480121F2
:10027000012204F0B1FDFB88002B04D00A480121C3
:1002800004F002FB03E00848002104F0FDFA094BEA
:10029000FA881A8036200121FFF78EFF3620FFF7FB
:1002A00073FF1837BD4680BD0010004000000020DD
:1002B0005917B7D11400002080B500AF06480121BE
:1002C00004F0BCFD0346002B05D00348012104F0D7
:1002D000DFFD01F029FA80BD0010004080B582B03A
:1002E00000AF0420012100F0D3FB0420012100F025
:1002F000CFFB00233B710123FB7102237B7104239D
:100300003B603B460748194601F0C0F84FF40053E4
:100310003B603B460348194601F0B8F80837BD4634
:1003200080BD00BF0008024080B582B000AF034628
:10033000FB71FB79002B02D0012B0BD016E00E488D
:10034000042101F031F90346002B14BF00230123DF
:10035000DBB20CE008484FF4005101F025F90346E8
:10036000002B14BF00230123DBB200E0002318465A
:100370000837BD4680BD00BF0008024080B582B08E
:1003800000AF104B7B60104B3B6007E03B681A1DD1
:100390003A607A68111D796012681A603A680B4BEE
:1003A0009A42F3D30A480B494FF000028842B8BF83
:1003B00040F8042BFFF6FAAF00F0E6F90837BD4627
:1003C00080BD00BFCC6600080000002014000020A3
:1003D000140000207C02002080B400AFFEE700BFC4
:1003E00080B483B000AF00233B710023BB710123B5
:1003F0003B6000237B710223FB710C37BD465DF827
:10040000047B704780B582B000AF4FF4804001217B
:1004100000F07AFB0B4B01221A600A4B00221A7182
:10042000084B08225A71074B01229A7106233B712F
:1004300001237B710123BB710123FB710837BD468A
:1004400080BD00BF3C00002080B584B000AF01201B
:1004500003F0E0F90346002B00F0F98000E000BF54
:10046000002000F0B3FF012000F0B0FF022000F0F8
:10047000ADFF032000F0AAFF0023BB6002E0BB68D1
:100480000133BB60BA68734B9A42F8DD002000F07C
:10049000CFFF012000F0CCFF022000F0C9FF0320B5
:1004A00000F0C6FF0023FB60F86800F08FFFF868DB
:1004B00000F08CFF0023BB601BE000F0D9F803467E
:1004C000002B13D00023BB6008E000F0D1F80346F6
:1004D000002B00D100BFBB680133BB60BA685E4B24
:1004E0009A42F2DD00BF0023BB6031E0BB680133FC
:1004F000BB60BA68594B9A42DFDD002000F098FFDC
:10050000012000F095FF022000F092FF032000F090
:100510008FFF00BF012003F0A1F998E000F0A8F8D8
:100520000346002B11D1F86800F082FFFB685A1CCB
:100530004B4B1340002B03DA013B63F00303013301
:10054000FB60F86800F042FFB1E7BB680133BB60B5
:10055000BA68444B9A42E1DD00BFF86800F068FFDA
:100560000023BB6002E0BB680133BB60BA683E4B4E
:100570009A42F8DDF86800F029FFFB68032B3FF68C
:100580006EAF01A252F823F0990500080B0600088F
:10059000290600083F06000800237B6031E00020A8
:1005A00000F014FF012000F011FF022000F00EFF08
:1005B000032000F00BFF0023BB6002E0BB680133A7
:1005C000BB607B68294A02FB03F2BB689A42F5DCF8
:1005D000002000F02DFF012000F02AFF022000F093
:1005E00027FF032000F024FF0023BB6002E0BB686C
:1005F0000133BB60BA681B4B9A42F8DD7B6801335C
:100600007B607B68092BCADD20E00023BB6002E031
:10061000BB680133BB60BA680E4B9A42F8DD15E047
:10062000012000F023FE00E000BF00F021F80346A7
:10063000002BF5D10AE0012000F018FE00E000BF19
:1006400000F016F80346002BF5D100BF07E710377E
:10065000BD4680BD7F9698003F420F00FF2C3101C0
:1006600003000080BFC62D003F4B4C0040420F00EE
:1006700080B500AF0348012100F096FF03461846FD
:1006800080BD00BF0000024080B483B000AF0346CD
:100690003960FB7197F90730002B0BDA0D49FB79B4
:1006A00003F00F03043B3A68D2B21201D2B20B44FA
:1006B0001A7609E0084997F907303A68D2B2120170
:1006C000D2B20B4483F800230C37BD465DF8047B9F
:1006D000704700BF00ED00E000E100E080B582B0AF
:1006E00000AF78607B68B3F1807F01D3012311E014
:1006F0000A4B7A6822F07F42013A5A604FF0FF308D
:100700000F21FFF7C1FF054B00229A60034B072220
:100710001A60002318460837BD4680BD10E000E08F
:1007200080B483B000AF0B4B1B680B4A82FB0312F3
:100730009111DA178A1AC82101FB02F29B1A7B6019
:10074000044B1B685A1C034B1A600C37BD465DF8FE
:10075000047B7047180000201F85EB5180B485B0E2
:1007600000AF7860074B1B68FB6000BFFA687B68CE
:100770001A44044B1B689A42F8D81437BD465DF8FA
:10078000047B70471800002080B58CB000AF02F0E9
:10079000BDFAB84BFB62B84B1A68B84BA3FB021307
:1007A0009B091846FFF79AFF00F0BEFD00F094FD8C
:1007B00001F086FE02F0ACFC02F03CFF00F06EFDA2
:1007C000FFF78CFD03F06AF842F21070FFF72AFD84
:1007D0004FF4FA70FFF7C2FF03F0EEF900F0EEF904
:1007E000FFF7FEFDFFF70EFE00F080FD4FF4FA70FC
:1007F000FFF7B4FF00F0B2FA034687F82330002376
:1008000087F82B3012E000F067FD00F079FDC8207A
:10081000FFF7A4FF00F06AFD00F07CFDC820FFF7A1
:100820009DFF97F82B30013387F82B3097F82B205A
:1008300097F823309A42E6D300237B6200F0A8FAAF
:1008400000F094FA0346002B03D08D4B1B68FB622B
:1008500014E08B4B1A68FB6AD31A322B0EDD002092
:1008600001F076FC012001F073FC022001F070FC25
:10087000032001F06DFC002000F0F8FC0020FFF7E1
:1008800053FD0346002B05D00120FFF74DFD034625
:10089000002B02D100F020FD01E000F027FD002038
:1008A00002F000FD0346FB61012002F0FBFC034661
:1008B000BB61022002F0F6FC03467B61032002F0DC
:1008C000F1FC03463B61042002F0ECFC0346FB60B4
:1008D000052002F0E7FC0346BB60062002F0E2FCC4
:1008E00003467B60022002F0DDFC03461A46654B9E
:1008F0001A60644B1A6840F6B8339A420BDD002048
:1009000000F064FD012000F061FD022000F05EFDBA
:10091000032000F05BFD5B4B1A6840F6B7339A4248
:1009200011DC584B1A6840F654339A420BDD002014
:1009300000F07EFD012000F049FD022000F046FDA0
:10094000032000F043FD4F4B1A6840F653339A42A0
:1009500010DC4C4B1B68B3F52F6F0BDD002000F053
:1009600067FD012000F064FD022000F02FFD032050
:1009700000F02CFD434B1B68B3F52F6F11DA414B90
:100980001A6840F68C239A420BDD002000F050FDDF
:10099000012000F04DFD022000F04AFD032000F090
:1009A00015FD384B1A6840F68B239A423EDC7B6A71
:1009B000002B1CD1324B1A68334B83FB0213991165
:1009C000D317CB1AC82101FB03F3D31A002B0ED186
:1009D000002000F02DFD012000F02AFD022000F093
:1009E00027FD032000F024FD01237B621EE07B6ACB
:1009F000012B1BD1224B1A68234B83FB0213991145
:100A0000D317CB1AC82101FB03F3D31A002B0DD146
:100A1000002000F0DBFC012000F0D8FC022000F0F8
:100A2000D5FC032000F0D2FC00237B62042002F0FE
:100A300039FC03461A4640F673139A4203D8134B07
:100A400001221A7014E0114B00221A700020FFF7E7
:100A50006BFC0346012B08D10120FFF765FC034620
:100A6000012B02D100F038FC02E000F03FFCE5E68B
:100A7000E4E600BF78ECFFFF00000020D34D6210D9
:100A800018000020200000201F85EB511C000020D2
:100A900080B483B000AF78600B46FB70FB78002B0E
:100AA00006D0094B084A116B7A680A431A6306E0BC
:100AB000054B054A116B7A68D2430A401A630C371A
:100AC000BD465DF8047B70470038024080B483B0B7
:100AD00000AF78600B46FB70FB78002B06D0094B0B
:100AE000084A116C7A680A431A6406E0054B054A05
:100AF000116C7A68D2430A401A640C37BD465DF81F
:100B0000047B70470038024080B483B000AF786047
:100B10000B46FB70FB78002B06D0094B084A516C42
:100B20007A680A435A6406E0054B054A516C7A68B4
:100B3000D2430A405A640C37BD465DF8047B7047C7
:100B40000038024080B483B000AF78600B46FB7081
:100B5000FB78002B06D0094B084A116A7A680A43D1
:100B60001A6206E0054B054A116A7A68D2430A40C8
:100B70001A620C37BD465DF8047B704700380240AE
:100B800080B483B000AF78600B46FB70FB78002B1D
:100B900006D0094B084A516A7A680A435A6206E04D
:100BA000054B054A516A7A68D2430A405A620C37AB
:100BB000BD465DF8047B70470038024080B500AF49
:100BC00003F086F980BD00BF90B585B000AF7860B6
:100BD0000B46FB700023BB730023FB734FF0000335
:100BE000BB60FB782C2B40F0B2807B681B782C2BF1
:100BF00040F0AD800123FB7392E0FB7B7A681344E5
:100C00001B781C4602F064FE03469C4240F085803F
:100C10000123BB73FB7B01337A6813441B78DBB27F
:100C20005BB2184604F0E6FE0346BB600020B968DC
:100C300000F036FDFB7B02337A6813441B78DBB28D
:100C40005BB2184604F0D6FE0346BB600120B968CB
:100C500000F026FDFB7B03337A6813441B78DBB27C
:100C60005BB2184604F0C6FE0346BB600220B968BA
:100C700000F016FDFB7B04337A6813441B78DBB26B
:100C80005BB2184604F0B6FE0346BB600320B968A9
:100C900000F006FDFB7B05337A6813441B78184689
:100CA00000F0E4FAFB7B06337A6813441B78DBB26E
:100CB0005BB2184604F09EFE0346BB60B8684FF076
:100CC000000105F0A7F80346002B0CD0B8682149B5
:100CD00004F0E4FE0346184605F0CCF80346184637
:100CE00002F02AFC33E0B8684FF0000105F074F818
:100CF0000346002B00D12AE0BB6883F00043BB60B1
:100D0000B868144904F0CAFE0346184605F0B2F864
:100D10000346184602F050FC19E0FB7B0733FB73D7
:100D2000FB7B2B2B7FF669AFBB7B002B0FD1002009
:100D3000094900F0B5FC0120074900F0B1FC022090
:100D4000054900F0ADFC0320034900F0A9FC14376D
:100D5000BD4690BD000020410000A04180B500AF1D
:100D600002F0B6FD0346DBB2184680BD80B483B006
:100D700000AF064B1B68FB71044B00221A60FB7925
:100D800018460C37BD465DF8047B704724000020F0
:100D900080B582B000AFB0E05C4B01221A6003F076
:100DA00085F80346FB715A4B1B78002B0ED100F0DF
:100DB000A7FA574B01221A70564B01221A70564B54
:100DC000FA791A70554BFA791A7096E0514B1B78E4
:100DD000013B032B5ED801A252F823F0ED0D000871
:100DE0000F0E0008310E0008530E00084A4BFA7926
:100DF0005A704A4B1A78FB795340DAB2474B1A7053
:100E0000444B1B780133DAB2424B1A7075E0424B07
:100E1000FA799A70414B1A78FB795340DAB23F4B1A
:100E20001A703C4B1B780133DAB23A4B1A7064E00B
:100E3000394BFA79DA70394B1A78FB795340DAB2C8
:100E4000364B1A70334B1B780133DAB2314B1A70C0
:100E500053E0324B1B78DB43DAB2304B1A702E4B27
:100E6000FA791A712C4B1A792C4B1B789A4207D0BD
:100E7000274B00221A7003F041F800F04BFA3CE0D7
:100E8000244B1B780133DAB2224B1A70234B002219
:100E90001A7032E01F4B1B78053B1F4A1344FA7946
:100EA0005A711E4B1A78FB795340DAB21B4B1A70F9
:100EB000184B1B781A46184B1B7805339A4203DAF5
:100EC000144B1B78332B11D9114B00221A7000F0F0
:100ED00021FA124B1B78002B05D10F4B1B781048C1
:100EE0001946FFF771FE03F009F806E0094B1B787D
:100EF0000133DAB2074B1A7000BF03F00DF8034656
:100F0000002B7FF449AF0837BD4680BD2400002088
:100F10002800002029000020440000202A00002092
:100F20004900002080B485B000AF786039600023AC
:100F3000FB600023FB727B685B68FB60FB6823F04F
:100F4000407323F48073FB603B681B791A023B6893
:100F50001B681343FA681343FB607B68FA685A60A6
:100F60007B689B68FB60FA68174B1340FB603B682B
:100F70001A693B68DB681A433B689B681A433B6805
:100F80005B795B001343FA681343FB607B68FA6884
:100F90009A607B68DB6AFB60FB6823F47003FB608C
:100FA0003B681B7D013BDAB2FB7A1343FB72FB7A91
:100FB0001B05FA681343FB607B68FA68DA62143732
:100FC000BD465DF8047B7047FDF7FFC080B485B077
:100FD00000AF78600023FB600E4B5B68FB60FA6833
:100FE0000D4B1340FB607B681A687B685B681A4393
:100FF0007B689B681A437B68DB681343FA6813437A
:10100000FB60044BFA685A601437BD465DF8047BF8
:10101000704700BF00230140E030FCFF80B483B084
:1010200000AF78600B46FB70FB78002B06D07B6826
:101030009B6843F001027B689A6005E07B689B68CF
:1010400023F001027B689A600C37BD465DF8047B93
:10105000704700BF80B485B000AF7860F970BA7097
:101060007B700023FB600023BB60FB78092B23D936
:101070007B68DB68FB60FB78A3F10A0213465B0028
:101080001344072202FA03F3BB60BB68DB43FA6830
:101090001340FB607978FB78A3F10A0213465B00EA
:1010A000134401FA03F3BB60FA68BB681343FB60A7
:1010B0007B68FA68DA601EE07B681B69FB60FA787F
:1010C00013465B001344072202FA03F3BB60BB68BC
:1010D000DB43FA681340FB607978FA7813465B00CB
:1010E000134401FA03F3BB60FA68BB681343FB6067
:1010F0007B68FA681A61BB78062B21D87B685B6B2A
:10110000FB60BB785A1E13469B0013441F2202FA51
:1011100003F3BB60BB68DB43FA681340FB60F978FC
:10112000BB785A1E13469B00134401FA03F3BB60BD
:10113000FA68BB681343FB607B68FA685A6347E050
:10114000BB780C2B21D87B681B6BFB60BB78DA1F4C
:1011500013469B0013441F2202FA03F3BB60BB68D3
:10116000DB43FA681340FB60F978BB78DA1F13465B
:101170009B00134401FA03F3BB60FA68BB68134396
:10118000FB607B68FA681A6322E07B68DB6AFB60BD
:10119000BB78A3F10D0213469B0013441F2202FAF1
:1011A00003F3BB60BB68DB43FA681340FB60F9786C
:1011B000BB78A3F10D0213469B00134401FA03F31D
:1011C000BB60FA68BB681343FB607B68FA68DA624D
:1011D0001437BD465DF8047B704700BF80B483B010
:1011E00000AF78607B689B6843F080427B689A60C0
:1011F0000C37BD465DF8047B704700BF80B483B0F8
:1012000000AF78600B46FB70FB78002B06D07B6844
:101210009B6843F480727B689A6005E07B689B68FA
:1012200023F480727B689A600C37BD465DF8047BBE
:10123000704700BF80B483B000AF78600B46FB708E
:10124000FB78002B06D07B689B6843F400727B68B8
:101250009A6005E07B689B6823F400727B689A6063
:101260000C37BD465DF8047B704700BF80B582B087
:1012700000AF0346FB71FB79002B05D006484FF405
:10128000006100F0ABF904E003484FF4006100F0A6
:10129000B3F90837BD4680BD0010024080B582B06A
:1012A00000AF10200121FFF72FFC01233B71002329
:1012B000BB714FF400633B6002237B713B460548E2
:1012C000194600F0E3F80020FFF7D0FF0837BD46CD
:1012D00080BD00BF0010024080B500AF024804216D
:1012E00000F07CF980BD00BF000C024080B500AF6B
:1012F0000248042100F080F980BD00BF000C0240CC
:1013000080B500AF0248022100F068F980BD00BF3F
:10131000000C024080B500AF0248022100F06CF9D9
:1013200080BD00BF000C024080B582B000AF082035
:101330000121FFF7ADFB01233B710023BB710423A7
:101340003B6000237B710023FB713B461E4819461E
:1013500000F09CF801233B710023BB7102233B602A
:1013600000237B710023FB713B461748194600F0B0
:101370008DF808200121FFF78BFB01233B7100232F
:10138000BB714FF470433B6002237B710023FB7100
:101390003B460D48194600F079F808200121FFF777
:1013A00077FB01233B710023BB714FF4AA433B60E1
:1013B00002237B710023FB713B460348194600F072
:1013C00065F80837BD4680BD000C024080B582B08C
:1013D00000AF0346FB71FB79032B23D801A252F81F
:1013E00023F000BFF5130008011400080D140008D5
:1013F000191400080D484FF4807100F0EFF811E067
:101400000A484FF4806100F0E9F80BE007484FF418
:10141000805100F0E3F805E004484FF4804100F00B
:10142000DDF800BF0837BD4680BD00BF000C02409C
:1014300080B582B000AF0346FB71FB79032B1FD848
:1014400001A252F823F000BF5914000863140008E9
:101450006D140008771400080B484FF4807100F0F9
:10146000CBF809484FF4806100F0C6F806484FF405
:10147000805100F0C1F804484FF4804100F0BCF8FE
:101480000837BD4680BD00BF000C024080B487B065
:1014900000AF7860396000237B6100233B6100234B
:1014A000FB6000237B6176E07B69012202FA03F393
:1014B0003B613B681A683B691340FB60FA683B6913
:1014C0009A4265D17B681A687B695B00032101FA47
:1014D00003F3DB431A407B681A607B681A683B6839
:1014E0001B7919467B695B0001FA03F31A437B6899
:1014F0001A603B681B79012B03D03B681B79022BD8
:101500002ED17B689A687B695B00032101FA03F3A3
:10151000DB431A407B689A607B689A683B685B791A
:1015200019467B695B0001FA03F31A437B689A60F2
:101530007B685A687B699BB2012101FA03F3DB43A4
:101540001A407B685A607B685A683B689B791946E9
:101550007B699BB201FA03F39BB21A437B685A6022
:101560007B68DA687B699BB25B00032101FA03F3B5
:10157000DB431A407B68DA607B68DA683B68DB79BA
:1015800019467B695B0001FA03F31A437B68DA6052
:101590007B6901337B617B690F2B85D91C37BD4685
:1015A0005DF8047B704700BF80B485B000AF786001
:1015B0000B467B800023FB737B681A697B88134092
:1015C000002B02D00123FB7301E00023FB73FB7BA4
:1015D00018461437BD465DF8047B704780B483B06D
:1015E00000AF78600B467B807B687A881A830C3763
:1015F000BD465DF8047B704780B483B000AF78606F
:101600000B467B807B687A885A830C37BD465DF831
:10161000047B704780B485B000AF786013460A46FB
:101620007A807B700023FB600023BB607A787B8824
:1016300003F007039B0002FA03F3FB607B88DB08DF
:101640009BB21A467B88DB089BB219467B6808313F
:1016500053F821107B8803F007039B000F2000FA4A
:1016600003F3DB4319407B68083243F822107B8880
:10167000DB089BB21A467B68083253F82220FB68CD
:101680001343BB607B88DB089BB21A467B68083239
:10169000B96843F822101437BD465DF8047B7047E3
:1016A00080B582B000AF03463960FB7138681949D4
:1016B00004F0F4F9034618464FF0864104F0A2FA0C
:1016C00003463B60FB79032B1ED801A252F823F09E
:1016D000E1160008EB160008F5160008FF160008D2
:1016E0000D4B3A689A6201230FE00C4B3A689A62FC
:1016F00001230AE00A4B3A689A62012305E0094B8C
:101700003A689A62012300E0002318460837BD4674
:1017100080BD00BF00002043CC0000208C010020D1
:101720005C010020FC0000202DE9B04388B000AF30
:101730000023FB834FF0804003F07AF80346FB83DD
:101740009B4B1B889AB2FB8BD31A9BB29BB2BB807C
:10175000974BFA8B1A80974803F06AF80346FB838D
:10176000934B5B889AB2FB8BD31A9BB29BB2FB80E4
:101770008F4BFA8B5A80904803F05AF80346FB834C
:101780008B4B9B889AB2FB8BD31A9BB29BB23B814B
:10179000874BFA8B9A80894803F04AF80346FB830B
:1017A000834BDB889AB2FB8BD31A9BB29BB27B81B3
:1017B0007F4BFA8BDA80BB881BB2184604F01AF90B
:1017C0000446FEF723FD0346184604F013F90346CA
:1017D0002046194604F062F903461846194604F0FB
:1017E00055F803461846764904F058F9034618465A
:1017F000744904F007FA0346BB61B86904F014FBAE
:1018000003469BB21BB2184604F0F4F802466E4B36
:10181000DA62FB881BB2184604F0ECF80446FEF7C7
:10182000F5FC0346184604F0E5F803462046194641
:1018300004F034F903461846194604F027F8034625
:1018400018465F4904F02AF9034618465D4904F03A
:10185000D9F903467B61786904F0E6FA03469BB246
:101860001BB2184604F0C6F80246584BDA623B89B0
:101870001BB2184604F0BEF80446FEF7C7FC034648
:10188000184604F0B7F803462046194604F006F956
:1018900003461846194603F0F9FF0346184648491F
:1018A00004F0FCF803461846464904F0ABF9034639
:1018B0003B61386904F0B8FA03469BB21BB2184684
:1018C00004F098F80246424BDA627B891BB2184654
:1018D00004F090F80446FEF799FC0346184604F01D
:1018E00089F803462046194604F0D8F803461846FE
:1018F000194603F0CBFF03461846314904F0CEF8F1
:10190000034618462F4904F07DF90346FB60F8684A
:1019100004F08AFA03469BB21BB2184604F06AF838
:1019200002462C4BDA62284BDB6A184603F06AFC4D
:1019300002460B461046194619A3D3E9002303F0CB
:10194000B5FC02460B4614461D46204BDB6A184682
:1019500003F058FC02460B461046194612A3D3E981
:10196000002303F0A3FC02460B462046294603F061
:10197000E9FA02460B4614461D46154BDB6A18462B
:1019800003F040FC02460B461046194606A3D3E975
:10199000002303F08BFC02461EE000BFAFF3008083
:1019A0007B14AE47E17A84BF091B9E5E29CB803F42
:1019B000300000200004004000080040000C0040FF
:1019C000DB0F494000004845CC0000208C0100207E
:1019D0005C010020FC0000200B462046294603F055
:1019E000B3FA02460B4614461D469D4BDB6A184669
:1019F00003F008FC02460B461046194690A3D3E9B3
:101A0000002303F053FC02460B462046294603F010
:101A10009BFA02460B461046194603F0E1FE0346C8
:101A200083F000428F4B1A608F4BDB6A184603F03D
:101A3000E9FB02460B461046194683A3D3E900236F
:101A400003F034FC02460B4614461D46874BDB6A06
:101A5000184603F0D7FB02460B46104619467AA3F8
:101A6000D3E9002303F022FC02460B462046294618
:101A700003F068FA02460B4614461D467C4BDB6AAF
:101A8000184603F0BFFB02460B46104619466EA3EC
:101A9000D3E9002303F00AFC02460B462046294600
:101AA00003F050FA02460B4614461D466C4BDB6AA7
:101AB000184603F0A7FB02460B461046194662A3E0
:101AC000D3E9002303F0F2FB02460B4620462946E9
:101AD00003F03AFA02460B461046194603F080FE20
:101AE000034683F000425F4BDA605F4BDB6A1846C7
:101AF00003F088FB02460B461046194654A3D3E96F
:101B0000002303F0D3FB02460B4614461D46574BF9
:101B1000DB6A184603F076FB02460B461046194670
:101B20004DA3D3E9002303F0C1FB02460B46204638
:101B3000294603F009FA02460B4614461D464C4B53
:101B4000DB6A184603F05EFB02460B461046194658
:101B500041A3D3E9002303F0A9FB02460B4620462C
:101B6000294603F0F1F902460B4614461D463C4B4C
:101B7000DB6A184603F046FB02460B461046194640
:101B800033A3D3E9002303F091FB02460B46204622
:101B9000294603F0D9F902460B461046194603F0D0
:101BA0001FFE034683F000422E4B9A612D4B5B6A69
:101BB000184603F027FB04460D462A4B9B6918463E
:101BC00003F020FB80468946FEF720FB03461846BB
:101BD00003F00CFF0346184603F014FB02460B46C5
:101BE0004FF00000234903F08BFC02460B464046B1
:101BF000494603F05BFB02460B462046294603F0AC
:101C0000A3F902460B461046194603F0E9FD0246C9
:101C1000144B5A62134B5A6A124B9A62114B9B6ACD
:101C2000184601F053FB02460E4BDA620D4B9B6ADD
:101C3000184601F08FFE02460A4B1A631CE000BFF3
:101C40007B14AE47E17A843FFA7E6ABC7493883F86
:101C5000567DAEB6627FB93F2F6EA301BC05B23F81
:101C6000FC000020EC010020CC0000208C010020B2
:101C70005C0100200000F03F994B1A68984BDB6A2A
:101C80001046194603F00AFF03461C46944BDA68D7
:101C9000934B1B6B1046194603F000FF034620468A
:101CA000194603F0F1FD03461A468D4B5A608C4BE2
:101CB0001A688B4B1B6B1046194603F0EFFE034668
:101CC0001C46874BDA68864BDB6A1046194603F0E0
:101CD000E5FE03462046194603F0D8FD03461A46A2
:101CE0007F4B1A617E4BDC697D4B5D68FEF78EFA97
:101CF0000346184603F07AFE03464FF07E5019461D
:101D000003F080FF03462846194603F0C7FE03464A
:101D10002046194603F0BAFD03461A46704BDA61B5
:101D20006F4B1C6A6E4B1D69FEF770FA034618462E
:101D300003F05CFE03464FF07E50194603F062FF4D
:101D400003462846194603F0A9FE034620461946D5
:101D500003F09CFD03461A46614B1A62604B5A6BB6
:101D6000604B9A625E4BDA695E4BDA625C4B9A6B4F
:101D70005D4B9A625A4B1A6A5B4BDA62584BDA6BCC
:101D80005A4B9A62564B5A6A584BDA62554802F0DF
:101D900057F9554802F054F9544802F089FA514B6A
:101DA0005A6A4F4BDB6A1046194603F077FE03462A
:101DB0001C464D4B5A6A4A4B1B6B1046194603F0A2
:101DC0006DFE03462046194603F060FD03461A46A1
:101DD000434B9A60434B5B6A83F00042404B1B6B62
:101DE0001046194603F05AFE03461C463E4B5A6AFB
:101DF0003B4BDB6A1046194603F050FE0346204673
:101E0000194603F043FD03461A46354B5A61344BDD
:101E10009B68184603F0F6F902460B461046194631
:101E200027A3D3E9002303F041FA02460B461446E8
:101E30001D462B4B5B69184603F0E4F902460B463E
:101E40001046194620A3D3E9002303F02FFA0246D7
:101E50000B462046294603F077F802460B46144607
:101E60001D46224B5B6A184603F0CCF902460B462E
:101E70001046194616A3D3E9002303F017FA0246C9
:101E80000B462046294603F05FF802460B461046F3
:101E9000194603F0A5FC034683F00042144B9A62F6
:101EA0000F4B9B68184603F0ADF902460B461046EF
:101EB000194609A3D3E900231CE000BFAFF300805B
:101EC00065C746205EF73DC0B0C91AF5104D3140D8
:101ED000BA313D61898707406475ABE7A47738C0A4
:101EE000EC0100202C010020BC0100202C0200206D
:101EF000CC00002003F0DAF902460B4614461D46DA
:101F00008D4B5B69184603F07DF902460B4610467F
:101F1000194681A3D3E9002303F0C8F902460B4612
:101F20002046294603F00EF802460B4614461D468D
:101F3000824B5B6A184603F065F902460B46104671
:101F4000194677A3D3E9002303F0B0F902460B4604
:101F50002046294602F0F8FF02460B461046194675
:101F600003F03EFC034683F00042754B9A62724BCD
:101F70009B68184603F046F902460B461046194680
:101F800065A3D3E9002303F091F902460B461446FA
:101F90001D46694B5B69184603F034F902460B464F
:101FA000104619465CA3D3E9002303F07FF90246EB
:101FB0000B462046294602F0C5FF02460B46144652
:101FC0001D465E4B5B6A184603F01CF902460B4641
:101FD0001046194652A3D3E9002303F067F90246DD
:101FE0000B462046294602F0AFFF02460B4610463C
:101FF000194603F0F5FB034683F00042514B9A6209
:102000004D4B9B68184603F0FDF802460B46104600
:10201000194645A3D3E9002303F048F902460B46CD
:1020200014461D46444B5B69184603F0EBF8024624
:102030000B46104619463EA3D3E9002303F036F9B8
:1020400002460B462046294602F07EFF02460B461A
:1020500014461D46394B5B6A184603F0D3F8024616
:102060000B46104619462EA3D3E9002303F01EF9B0
:1020700002460B462046294602F066FF02460B4602
:102080001046194603F0ACFB034683F000422E4B8A
:102090009A622E4801F0D4FF294801F0D1FF294867
:1020A00001F0CEFF284801F0CBFF284B5B6A1846B1
:1020B00003F0BAFE03469BB21BB20020194600F0A3
:1020C00057F81F4B5B6A184603F0AEFE03469BB2FF
:1020D0001BB20120194600F04BF81A4B5B6A1846F8
:1020E00003F0A2FE03469BB21BB20220194600F089
:1020F0003FF8154B5B6A184603F096FE03469BB209
:102100001BB20320194600F033F82037BD46BDE866
:10211000B08300BFAFF300806475ABE7A4773840AD
:10212000BA313D618987074065C746205EF73D406B
:10213000B0C91AF5104D3140EC0100202C020020EE
:102140008C0100205C010020FC000020CC0000205D
:1021500080B582B000AF0346FB71FB7918460021C1
:1021600000F006F8034618460837BD4680BD00BF9C
:1021700080B582B000AF02460B46FA71BB80B7F95A
:102180000430B3F57A7F03DD4FF47A73BB8007E048
:10219000B7F9043013F57A7F02DA4FF61843BB80A3
:1021A000FB79032B00F27A8101A252F823F000BFE1
:1021B000C12100087722000829230008E323000832
:1021C000B9480121FFF718FAB7480221FFF714FABE
:1021D000B7F90430002B1CDDB44BB7F904205A6367
:1021E000B24B00221A64B148012102F019FEAF4837
:1021F000012102F015FE00BFAB484FF48041FFF70C
:10220000D3F90346002BF7D0A7480221FFF7E6F9E0
:102210002FE0B7F90430002B1DDAA44BB7F90420E6
:1022200052421A64A14B00225A63A048012102F0D5
:10223000F7FD9E48012102F0F3FD00BF9C484FF4DA
:102240008071FFF7B1F90346002BF7D096480121C2
:10225000FFF7C4F90DE0954B00225A63934B00221F
:102260001A649248012102F0DBFD9048012102F03E
:10227000D7FD012313E18C480421FFF7BDF98D48F8
:102280000421FFF7B9F9B7F90430002B1BDD874BA8
:10229000B7F904209A63854B0022DA638348012151
:1022A00002F0BEFD8148012102F0BAFD00BF814865
:1022B0000221FFF779F90346002BF8D07D4804216D
:1022C000FFF78CF92EE0B7F90430002B1CDA774BBE
:1022D000B7F904205242DA63744B00229A637348C0
:1022E000012102F09DFD7148012102F099FD00BF1E
:1022F00070480121FFF758F90346002BF8D06A48CF
:102300000421FFF76BF90DE0684B00229A63674BDD
:102310000022DA636548012102F082FD6348012151
:1023200002F07EFD0123BAE05F484FF48071FFF7B1
:1023300063F95D484FF40071FFF75EF9B7F90430B7
:10234000002B1CDD5C4BB7F904205A635A4B00226A
:102350009A635948012102F063FD5748012102F0B8
:102360005FFD00BF55488021FFF71EF90346002B93
:10237000F8D04D484FF40071FFF730F92FE0B7F96E
:102380000430002B1DDA4C4BB7F9042052429A63FB
:10239000494B00225A634848012102F041FD46485A
:1023A000012102F03DFD00BF44484021FFF7FCF849
:1023B0000346002BF8D03C484FF48071FFF70EF92C
:1023C0000DE03D4B00225A633B4B00229A633A4892
:1023D000012102F025FD3848012102F021FD0123F1
:1023E0005DE031480821FFF707F92F484FF480518D
:1023F000FFF702F9B7F90430002B1DDD2E4BB7F9BA
:102400000420DA632C4B00221A642B48012102F0CD
:1024100007FD2948012102F003FD00BF27484FF4C2
:102420000071FFF7C1F80346002BF7D01E484FF4A8
:102430008051FFF7D3F82FE0B7F90430002B1DDAF5
:102440001D4BB7F9042052421A641B4B0022DA6379
:102450001948012102F0E4FC1748012102F0E0FCD8
:1024600000BF16484FF48071FFF79EF80346002B1B
:10247000F7D00D480821FFF7B1F80DE00E4B002210
:10248000DA630D4B00221A640B48012102F0C8FCEC
:102490000948012102F0C4FC012300E00023184692
:1024A0000837BD4680BD00BF00100240000001405B
:1024B0000000024000040240000401400008024005
:1024C00080B58CB002AF01200121FEF7E1FA0220B5
:1024D0000121FEF7DDFA04200121FEF7D9FA1020D0
:1024E0000121FEF7D5FA01200121FEF70DFB0120A5
:1024F0000121FEF7EBFA02200121FEF7E7FA0420A2
:102500000121FEF7E3FA08200121FEF7DFFA02209D
:102510000121FEF7F9FA022387F82430012387F816
:1025200027304FF400433B62022387F8253007F140
:102530002003CC481946FEF7A9FF08233B6207F1A8
:102540002003C9481946FEF7A1FFC6480F21012202
:10255000FFF760F8C44803210122FFF75BF810235E
:102560003B6207F12003C0481946FEF78FFF202386
:102570003B6207F12003BC481946FEF787FFBA48C3
:1025800004210222FFF746F8B74805210222FFF78F
:1025900041F840233B6207F12003B3481946FEF798
:1025A00075FF80233B6207F12003AF481946FEF711
:1025B0006DFFAD4806210222FFF72CF8AA4807213B
:1025C0000222FFF727F801233B6207F12003A54809
:1025D0001946FEF75BFF02233B6207F12003A14887
:1025E0001946FEF753FF9F4800210222FFF712F819
:1025F0009C4801210222FFF70DF84FF08040032193
:102600000022002302F054FC4FF08040012102F030
:102610003BF9964803210022002302F049FC93482D
:10262000012102F031F9924803210022002302F037
:102630003FFC8F48012102F027F98E480321002238
:10264000002302F035FC8B48012102F01DF9022322
:1026500087F82430002387F826304FF480733B62DC
:10266000022387F82530012387F8273007F120035C
:102670007C481946FEF70AFF022387F8243000231E
:1026800087F826304FF480433B62022387F82530D9
:10269000012387F8273007F1200377481946FEF712
:1026A000F5FE012387F82430002387F82630012324
:1026B0003B62022387F82530022387F8273007F191
:1026C00020036D481946FEF7E1FE6B480121FEF735
:1026D00093FF012387F82430002387F82630022354
:1026E0003B62022387F82530022387F8273007F161
:1026F000200361481946FEF7C9FE5F480221FEF734
:102700007BFF584808210122FEF784FF5A480E211A
:102710000122FEF77FFF0023BB830023FB82574B80
:102720001A68574BA3FB02139B0E9BB2013B9BB253
:10273000BB824FF47A73BB6107F114035148194609
:1027400002F00CF807F114034E48194602F006F89F
:1027500060233B8001237B800023BB800023BB6080
:102760000223BB814FF480733B823B4645481946A8
:1027700002F0AAF83B464348194602F02DFA4148B8
:10278000082102F08FFA3F48082102F0E1FA3D48A3
:10279000012102F059F83B48012102F055F839486F
:1027A000012102F071F83748012102F06DF8354837
:1027B000012102F0EBFA3348012102F0E7FA02238B
:1027C00087F82430002387F8263001233B62022358
:1027D00087F82530012387F8273007F120032248A6
:1027E0001946FEF753FE022387F82430002387F8AA
:1027F000263002233B62022387F82530012387F825
:10280000273007F1200318481946FEF73FFE012341
:1028100087F82430002387F8263004233B62022304
:1028200087F8253007F1200313481946FEF72EFEDE
:1028300011480421FEF7E0FE012387F8243000232D
:1028400087F8263004233B62022387F8253007F1FE
:10285000200305481946FEF719FE03480421FEF738
:10286000CBFE11E0000002400004024000040040E2
:1028700000080040000C0040001002400000002052
:1028800029D9426600000140C44800210122FEF718
:10289000C1FEC24801210122FEF7BCFE0023BB831A
:1028A0000023FB82BE4B1A68BE4BA3FB02139B0E98
:1028B0009BB2013B9BB2BB824FF47A73BB6107F1C1
:1028C0001403B948194601F049FF07F11403B6484B
:1028D000194601F043FF60233B8000237B800423E3
:1028E000BB800023BB600823FB814FF400737B8215
:1028F0003B46AD48194602F061F83B46AA481946E6
:1029000002F0E4F8A848082102F0E8F9A6480821F6
:1029100002F002FAA448012101F096FFA248012129
:1029200001F092FFA048012101F0AEFF9E48012175
:1029300001F0AAFF9C48012102F028FA9A480121DF
:1029400002F024FA022387F82430002387F8263087
:1029500040233B62022387F8253007F12003934888
:102960001946FEF793FD022387F82430002387F8E9
:10297000263080233B62022387F8253007F12003AD
:102980008A481946FEF782FD012387F82430002388
:1029900087F826304FF480733B62022387F8253096
:1029A00007F1200382481946FEF770FD80484FF476
:1029B0008071FEF721FE012387F82430002387F879
:1029C00026304FF400733B62022387F8253007F16D
:1029D000200377481946FEF759FD75484FF40071FA
:1029E000FEF70AFE714806210322FEF713FE6F4828
:1029F00007210322FEF70EFE0023BB830023FB8288
:102A0000674B1A68674BA3FB02139B0E9BB2013BFB
:102A10009BB2BB824FF47A73BB6107F11403654824
:102A2000194601F09BFE07F114036248194601F0B4
:102A300095FE60233B8001237B800023BB80002325
:102A4000BB600223BB814FF480733B823B465948F5
:102A5000194601F039FF3B465648194601F0AEFFD2
:102A60005448082102F01EF95248082102F036F9B4
:102A70005048012101F0E8FE4E48012101F0E4FE3A
:102A80004C48012101F000FF4A48012101F0FCFE01
:102A90004848012102F07AF94648012102F076F90E
:102AA000022387F82430002387F826304FF4807300
:102AB0003B62022387F8253007F120033B48194683
:102AC000FEF7E4FC022387F82430002387F8263041
:102AD0004FF400733B62022387F8253007F120038F
:102AE00032481946FEF7D2FC012387F82430002330
:102AF00087F8263008233B62022387F8253007F148
:102B000020032B481946FEF7C1FC29480821FEF78F
:102B100073FD012387F82430002387F826304FF413
:102B200080533B62022387F8253007F120032048B9
:102B30001946FEF7ABFC1E484FF48051FEF75CFDD2
:102B40001A4808210322FEF765FD184809210322CF
:102B5000FEF760FD0023BB830023FB82104B1A6845
:102B6000104BA3FB02139B0E9BB2013B9BB2BB829B
:102B70004FF47A73BB6107F114030E48194601F054
:102B8000EDFD07F114030B48194601F0E7FD602342
:102B90003B8001237B8000230EE000BF0004024045
:102BA0000000002029D942660000014000080240D0
:102BB0000010024000040140BB800023BB600223E0
:102BC000BB814FF480733B823B464148194601F07C
:102BD0007DFF3B463E48194601F0FEFF3C48082178
:102BE00002F09AF83A48082102F0B2F83848012178
:102BF00001F02AFE3648012101F026FE3448012169
:102C000001F042FE3248012101F03EFE3048012130
:102C100002F0BCF82E48012102F0B8F82D4801F06E
:102C2000E1F92D4B00932C4B01932C482C492D4A54
:102C30004FF0000301F09EF9274B0093264B0193C0
:102C400029482749274A4FF0000301F093F9224B06
:102C50000093214B019325482149224A4FF000035C
:102C600001F088F91C4B00931B4B019320481C4931
:102C70001C4A4FF0000301F07DF94FF07E530093A2
:102C80004FF07E5301931B481B491C4A4FF0804371
:102C900001F070F94FF07E5300934FF07E53019393
:102CA00017481549154A4FF0804301F063F94FF07A
:102CB000824300934FF082430193124812494FF030
:102CC00000024FF0000301F055F92837BD4680BDE2
:102CD00000040140EC01002000007A44CC000020F8
:102CE0000000A041CDCCCC3E8C0100205C01002036
:102CF000FC0000202C0100200000F04117B7D13863
:102D0000BC0100202C0200200000704280B500AF02
:102D1000114B114A126842F001021A600E4B002258
:102D20009A600D4A0C4B1B6823F0847323F48033A4
:102D30001360094B094A5A60074B074A126822F48C
:102D400080221A60044B0022DA6000F00BF8044B7A
:102D50004FF000629A6080BD0038024010300024BD
:102D600000ED00E080B483B000AF00237B6000235F
:102D70003B60354B344A126842F480321A60324B61
:102D80001B6803F400333B607B6801337B603B6866
:102D9000002B03D17B68B3F5A06FF0D12A4B1B68E1
:102DA00003F40033002B02D001233B6001E0002339
:102DB0003B603B68012B42D1234B234A126C42F00B
:102DC00080521A64214B214A126842F480421A60F0
:102DD0001D4B1D4A92689A601B4B1B4A926842F435
:102DE00000429A60184B184A926842F4A0529A60C6
:102DF000154B174A5A60144B134A126842F08072FE
:102E00001A6000BF104B1B6803F00073002BF9D051
:102E1000104B40F205621A600B4B0B4A926822F08D
:102E200003029A60084B084A926842F002029A60D4
:102E300000BF054B9B6803F00C03082BF9D10C373E
:102E4000BD465DF8047B70470038024000700040CA
:102E500008544007003C024080B483B000AF786063
:102E60007B681B6823F001027B681A607B68002284
:102E70001A607B6800225A607B6800229A607B6837
:102E80000022DA607B6800221A617B6821225A6185
:102E90007A68454B9A4203D1444B3D229A607EE0CA
:102EA0007A68434B9A4204D1404B4FF474629A6063
:102EB00075E07A683F4B9A4204D13C4B4FF4741250
:102EC0009A606CE07A683C4B9A4204D1374B4FF0E1
:102ED00074629A6063E07A68384B9A4203D1334B4C
:102EE000374ADA605BE07A68364B9A4203D12F4B5F
:102EF000354ADA6053E07A68344B9A4203D12B4B5F
:102F0000334ADA604BE07A68324B9A4204D1274B5D
:102F10004FF03D52DA6042E07A682F4B9A4203D17B
:102F20002E4B3D229A603AE07A682D4B9A4204D1AA
:102F30002A4B4FF474629A6031E07A68294B9A42C6
:102F400004D1264B4FF474129A6028E07A68264B1D
:102F50009A4204D1214B4FF074629A601FE07A6864
:102F6000224B9A4203D11D4B154ADA6017E07A686A
:102F70001F4B9A4203D1194B134ADA600FE07A686B
:102F80001C4B9A4203D1154B114ADA6007E07A686C
:102F9000194B9A4203D1114B4FF03D52DA600C3776
:102FA000BD465DF8047B704710600240006002403F
:102FB0002860024040600240586002407060024059
:102FC0003D00002088600240400F0020A0600240C9
:102FD00000003D20B86002401064024000640240DE
:102FE0002864024040640240586402407064024019
:102FF00088640240A0640240B864024080B485B096
:1030000000AF786039600023FB607B681B68FB6061
:10301000FA68244B1340FB603B681A683B68DB6826
:103020001A433B685B691A433B689B691A433B68D8
:10303000DB691A433B681B6A1A433B685B6A1A43A5
:103040003B689B6A1A433B685B6B1A433B689B6B0C
:103050001343FA681343FB607B68FA681A607B6865
:103060005B69FB60FB6823F00703FB603B68DA6A7F
:103070003B681B6B1343FA681343FB607B68FA6879
:103080005A613B681A697B685A603B685A687B687A
:103090009A603B689A687B68DA601437BD465DF8D1
:1030A000047B70473F801CF080B483B000AF786031
:1030B0000B46FB70FB78002B06D07B681B6843F047
:1030C00001027B681A6005E07B681B6823F001023F
:1030D0007B681A600C37BD465DF8047B704700BF03
:1030E00080B485B000AF78600023FB737B681B68F9
:1030F00003F00103002B02D00123FB7301E0002346
:10310000FB73FB7B18461437BD465DF8047B7047A4
:1031100080B59CB000AF4FF480700121FDF7F4FC46
:1031200059480121FDF7B4FC032387F86C300023D4
:1031300087F86F303023BB6607F1680353481946A0
:10314000FEF7A4F9032387F86C30002387F86F306B
:103150003723BB6607F168034D481946FEF796F919
:103160004C48FFF779FE00237B604B4BBB604B4B19
:10317000FB6000233B6107237B610023BB614FF4AD
:103180008063FB614FF400633B624FF400537B624A
:103190004FF48073BB624FF40033FB6200233B6348
:1031A00001237B630023BB630023FB633B1D394882
:1031B0001946FFF723FF37480121FFF775FF00BFCE
:1031C0003448FFF78DFF0346002BF9D00023BB6581
:1031D0000023FB6500233B6600237B6607F1580351
:1031E0001846FDF7F3FE00233B64012387F84430C3
:1031F000012387F845300023BB6400233B65072388
:1032000087F8543007F1400325481946FDF78AFE38
:1032100023480E2101220323FDF71CFF204805212E
:1032200002220323FDF716FF1D480F21032203236B
:10323000FDF710FF1A48042104220323FDF70AFFBB
:1032400017480A2105220323FDF704FF14480B2128
:1032500006220323FDF7FEFE11480C21072203235B
:10326000FDF7F8FE0E480121FDF7E4FF0C480121AF
:10327000FDF7C4FF0A480121FDF7D0FE0848FDF71D
:10328000ADFF7037BD4680BD050040000000024024
:1032900000080240106402404C2001405C02002003
:1032A0000020014080B485B000AF0346FB71FA797D
:1032B000054B53F82230FB81FB8918461437BD4675
:1032C0005DF8047B704700BF5C020020B0B592B08F
:1032D00000AF78604FF480733B647868924902F0E5
:1032E000DDFB0346FB63F86B02F09EFD03467B6447
:1032F00078684FF0000102F06FFD0346002B02D00A
:103300007B6C013B7B64786C02F074FB0346F86BCA
:10331000194602F0B9FA0346FB63386C02F066FB0B
:1033200003461846F96B02F0B9FB0346184602F053
:10333000A1FD0346BB63386C02F058FB03461846F8
:10334000F96B02F0ABFB03461C46B86B02F04EFB78
:1033500003462046194602F097FA03467B63BB6B8F
:103360009A00724B13443B633B6B1A1D3A631B6814
:10337000FB623B6B1A1D3A631B68BB623B6B1A1DF9
:103380003A631B687B623B6B1A1D3A631B683B62A6
:10339000786B796B02F082FB034618464FF07C5144
:1033A00002F07CFB03461C46786B614902F076FB19
:1033B00003462046194602F067FA03461C46786B1E
:1033C0005C4902F06BFB03461D46786B796B02F09B
:1033D00065FB03462846194602F060FB034620467B
:1033E000194602F051FA0346FB61786B4FF07C51AD
:1033F00002F054FB03461C46786B796B02F04EFBDF
:1034000003462046194602F049FB03461C46786BEA
:10341000796B02F043FB03462046194602F034FA6A
:1034200003461C46786B4FF07C5102F037FB034695
:103430004FF07E50194602F027FA034620461946FF
:1034400002F024FA0346BB61786B796B02F026FB2D
:10345000034618464FF07C5102F020FB0346184605
:10346000796B02F013FA03461C46786B4FF07C51DF
:1034700002F014FB03461D46786B796B02F00EFBDD
:1034800003462846194602F009FB03462046194622
:1034900002F0FAF903467B61786B264902F0FEFAE6
:1034A00003461C46786B796B02F0F8FA0346204617
:1034B000194602F0F3FA03461C46786B1D4902F0E8
:1034C000EDFA03462046194602F0DEF903463B6159
:1034D000F86AF96902F0E2FA03461C46B86AB9696B
:1034E00002F0DCFA03462046194602F0CFF9034603
:1034F0001C46786A796902F0D1FA03461D46386A9B
:10350000396902F0CBFA03462846194602F0BEF9A3
:1035100003462046194602F0B9F90346FB60FB68F2
:1035200018464837BD46B0BD83F9223EB45E000858
:10353000ABAAAA3EABAA2A3E80B586B000AF78609F
:103540000020FCF7F1FE0346002B05D00120FCF71C
:10355000EBFE0346002B27D100237B6100233B6158
:103560000023FB6013484FF48061FEF737F87B6857
:103570007B610FE07B683B6106E03A697B6913443D
:10358000FB603B69013B3B613B69002BF5D17B69EB
:10359000013B7B617B69002BECD106484FF48061D5
:1035A000FEF72AF8FB6800E0002318461837BD46EE
:1035B00080BD00BF0010024080B586B000AF7860CB
:1035C0000020FCF7B1FE0346002B05D00120FCF7DC
:1035D000ABFE0346002B25D100237B6100233B611A
:1035E0000023FB6012488021FDF7F8FF7B687B61B8
:1035F0000FE07B683B6106E03A697B691344FB603E
:103600003B69013B3B613B69002BF5D17B69013B89
:103610007B617B69002BECD105488021FDF7ECFF35
:10362000FB6800E0002318461837BD4680BD00BF88
:103630000010024080B582B000AF10200121FDF7DC
:1036400027FA10200121FDF723FA01233B71002303
:10365000BB7102237B714FF480633B603B460E4895
:103660001946FDF713FF0C484FF48061FDF7C4FFC6
:1036700001233B710023BB7102237B7180233B60DC
:103680003B4605481946FDF701FF03488021FDF739
:10369000B3FF0837BD4680BD0010024080B485B03E
:1036A00000AF786039600023FB817B681B88FB8159
:1036B000FB8903F44153FB813B681A883B685B88B4
:1036C00013439AB23B689B8813439AB23B68DB88EA
:1036D00013439AB23B681B8913439AB23B685B89D8
:1036E00013439AB23B689B8913439AB23B68DB89C8
:1036F00013439AB2FB891343FB817B68FA891A80D2
:103700007B689B8B9BB223F400639AB27B689A839D
:103710003B681A8A7B681A821437BD465DF8047BC1
:10372000704700BF80B483B000AF78600B46FB7079
:10373000FB78002B08D07B681B889BB243F04003CA
:103740009AB27B681A8007E07B681B889BB223F0E3
:1037500040039AB27B681A800C37BD465DF8047B43
:10376000704700BF80B483B000AF78607B689B89EE
:103770009BB218460C37BD465DF8047B704700BF0E
:1037800080B483B000AF78600B467B807B687A881A
:103790009A810C37BD465DF8047B704780B483B0D6
:1037A00000AF78600B46FB70FB78002B08D07B687D
:1037B0001B889BB243F400539AB27B681A8007E0DF
:1037C0007B681B889BB223F400539AB27B681A80F3
:1037D0000C37BD465DF8047B704700BF80B485B0F0
:1037E00000AF78600B467B800023FB737B681B89EE
:1037F0009AB27B8813409BB2002B02D00123FB734B
:1038000001E00023FB73FB7B18461437BD465DF8CF
:10381000047B704780B485B000AF78600023FB73F1
:103820000023BB600C4B1A687B681340BB600A4BDB
:103830005A697B681340002B05D0BB68002B02D06F
:103840000123FB7301E00023FB73FB7B1846143755
:10385000BD465DF8047B7047003C014080B483B0F6
:1038600000AF7860034B7A685A610C37BD465DF84B
:10387000047B7047003C014080B483B000AF7860A7
:10388000054A7B6843F0BF6343F40033D3600C37D1
:10389000BD465DF8047B704700ED00E080B582B066
:1038A00000AF02200121FDF7F3F800233B71012353
:1038B000FB7102237B714FF428433B603B46034876
:1038C0001946FDF7E3FD0837BD4680BD0004024000
:1038D00080B584B000AF0023FB600023BB600023F1
:1038E0007B601B484FF40041FDF75EFE0346002B52
:1038F00014BF00230123DBB2FB6015484FF40051D5
:10390000FDF752FE0346002B14BF00230123DBB258
:10391000BB600F484FF40061FDF746FE0346002BE5
:1039200014BF00230123DBB27B60BB68DAB27B6883
:10393000DBB25B00DBB21344DBB25B00DAB2FB68E4
:10394000DBB21344FB70FB7818461037BD4680BDD0
:1039500000040240B0B592B000AF78604FF48073BD
:103960003B647868904902F099F80346FB63F86B72
:1039700002F05AFA03467B6478684FF0000102F0C7
:103980002BFA0346002B02D07B6C013B7B64786CE6
:1039900002F030F80346F86B194601F075FF034654
:1039A000FB63386C02F022F803461846F96B02F00C
:1039B00075F80346184602F05DFA0346BB63386C9F
:1039C00002F014F803461846F96B02F067F8034654
:1039D0001C46B86B02F00AF803462046194601F06F
:1039E00053FF03467B63BB6B9A00704B13443B63EE
:1039F0003B6B1A1D3A631B68FB623B6B1A1D3A63F3
:103A00001B68BB623B6B1A1D3A631B687B623B6B96
:103A10001A1D3A631B683B62786B796B02F03EF8C3
:103A2000034618464FF07C5102F038F803461C4616
:103A3000786B796B02F032F803461846796B02F026
:103A40002DF8034618465A4902F028F803461D4649
:103A5000786B584902F022F803462846194601F0CF
:103A600015FF03462046194601F00EFF0346FB6191
:103A7000786B796B02F012F803461846796B02F006
:103A80000DF8034618464FF07C5102F007F8034644
:103A90001C46786B796B02F001F803461D46786B83
:103AA0004FF07C5101F0FAFF03462846194601F019
:103AB000EDFE03462046194601F0E6FE0346184691
:103AC0004FF07E5101F0E2FE0346BB61786B796BEB
:103AD00001F0E4FF034618464FF07C5101F0DEFF91
:103AE00003461C46786B796B01F0D8FF03461846F5
:103AF000796B01F0D3FF034618464FF07C5101F07B
:103B0000CDFF03462046194601F0BEFE0346184687
:103B1000796B01F0BBFE03467B61786B796B01F03A
:103B2000BDFF03461846796B01F0B8FF03461846FF
:103B30001F4901F0B3FF03461C46786B1C4901F096
:103B4000ADFF03462046194601F09EFE03463B6149
:103B5000F86AF96901F0A2FF03461C46B86AB96920
:103B600001F09CFF03462046194601F08FFE0346F4
:103B70001C46786A796901F091FF03461D46386A50
:103B8000396901F08BFF03462846194601F07EFE95
:103B900003462046194601F079FE0346FB60FB68A8
:103BA00018464837BD46B0BD83F9223EC0620008C2
:103BB000ABAA2A3EABAAAA3E80B58AB000AF4FF4AA
:103BC00000400121FCF782FF0C200121FCF760FF7F
:103BD00010200121FCF75CFF022387F82530022327
:103BE00087F82430002387F82630002387F8273011
:103BF0004FF480533B6207F1200352481946FDF70A
:103C000045FC022387F82530022387F8243000235F
:103C100087F82630002387F827304FF400633B6293
:103C200007F1200347481946FDF730FC022387F8C7
:103C30002530022387F82430002387F8263000231C
:103C400087F827304FF480633B6207F120033D483B
:103C50001946FDF71BFC022387F82530012387F85E
:103C60002430002387F82630002387F827300123EB
:103C70003B6207F1200334481946FDF707FC324840
:103C80000121FDF7ABFC2F480A210622FDF7C2FCFB
:103C90002C480B210622FDF7BDFC2A480C210622E8
:103CA000FDF7B8FC022387F82530002387F824307D
:103CB000002387F82630012387F8273010233B6242
:103CC00007F1200321481946FDF7E0FB0023BB81E3
:103CD0004FF48273FB8100233B8200237B8200230D
:103CE000BB820023BB8300237B834FF40073FB82E2
:103CF00030233B8307F10C0315481946FFF7CEFC30
:103D000013480021FFF74AFD11480121FFF70AFD82
:103D100008237B6000233B7210237B720123BB725C
:103D20004FF4C060FFF7A8FD09233B7000237B70B0
:103D30000023BB700123FB7000F076F82837BD46E6
:103D400080BD00BF00080240000C0240001002408D
:103D5000003C004080B500AF02480121FDF74CFC5B
:103D600080BD00BF000C024080B500AF02480121B9
:103D7000FDF734FC80BD00BF000C024080B584B06C
:103D800000AF0346FB80FFF7E5FFFB881B0A9BB2F1
:103D900024481946FFF7F4FC00BF22488021FFF7B2
:103DA0001DFD0346012BF8D000BF1E480121FFF77F
:103DB00015FD0346002BF8D01A48FFF7D3FC034645
:103DC0001B02BB81FB88DBB29BB216481946FFF78A
:103DD000D7FC00BF13488021FFF700FD0346012BED
:103DE000F8D000BF0F480121FFF7F8FC0346002B75
:103DF000F8D00C48FFF7B6FC03461A46BB891343BC
:103E0000BB810023FB7302E0FB7B0133FB73FB7B75
:103E1000632BF9D9FFF7A8FFBB8918461037BD46B9
:103E200080BD00BF003C004080B500AF4CF24000B8
:103E3000FFF7A4FF48F2D700FFF7A0FF4CF2AD2038
:103E4000FFF79CFF4CF68120FFF798FF4FF460408E
:103E5000FFF794FF4FF44840FFF790FF4CF2F74014
:103E6000FFF78CFF48F2C820FFF788FF0020FFF71C
:103E700085FF4AF25D50FFF781FF49F65000FFF7DA
:103E80007DFF49F28850FFF779FF4CF6D460FFF7C9
:103E900075FF4CF21060FFF771FF4CF68120FFF7C1
:103EA0006DFF4CF68320FFF769FF80BD80B582B0BF
:103EB00000AF0020FFF762FF4FF43040FFF75EFFD6
:103EC0000346FB80FB88DBB218460837BD4680BD41
:103ED00080B500AF48F2C820FFF750FF4BF6AA00AC
:103EE000FFF74CFF4CF68120FFF748FF4CF683208C
:103EF000FFF744FF0020FFF741FF80BD80B500AF12
:103F00004CF68120FFF73AFF4CF68320FFF736FF8F
:103F10000020FFF733FF80BD80B500AF05481021BA
:103F2000FDF742FB0346002B01D1012300E00023F3
:103F3000184680BD0010024080B582B000AF082056
:103F4000FFF768FC0346002B0DD0084B1B78002BB5
:103F500006D1FFF7ABFF0346FB71054BFA791A70E8
:103F60000820FFF77BFC0837BD4680BD78020020A3
:103F70003800002080B485B000AFF860B9607A6086
:103F80003B60FB68BA681A60FB687A685A60FB6835
:103F90003A689A60FB684FF000029A62FB684FF043
:103FA0000002DA60FB684FF000021A61FB684FF014
:103FB00000029A61FB684FF000025A61FB684FF003
:103FC0000002DA62FB684FF000025A62FB68BA69CD
:103FD0001A62FB68FA69DA611437BD465DF8047B42
:103FE000704700BF80B483B000AF78607B684FF04B
:103FF0000002DA637B684FF000025A627B684FF080
:1040000000029A617B684FF000021A607B684FF0F3
:104010000002DA607B684FF00002DA617B684FF0E3
:1040200000025A637B684FF000029A637B684FF08E
:1040300000021A620C37BD465DF8047B704700BF72
:1040400090B583B000AF78607B689A6A7B68DB6A62
:104050001046194601F018FC03461A467B68DA60E0
:104060007B685A697B68DB681046194601F00EFCD4
:1040700003461A467B685A617B685C697B68DA692B
:104080007B685B681046194601F0BCFD0346184684
:104090004FF0000101F0BEFE0346002B0BD07B6801
:1040A000DA697B685B681046194601F0ABFD034690
:1040B00083F0004308E07B68DA697B685B68104640
:1040C000194601F09FFD03462046194601F084FE83
:1040D0000346002B26D07B68DA697B685B68104654
:1040E000194601F08FFD034618464FF0000101F01C
:1040F00091FE0346002B0BD07B68DA697B685B6816
:104100001046194601F07EFD034683F000430BE0A4
:104110007B68DA697B685B681046194601F072FDBE
:10412000034601E07B685B697A6853617B685C6980
:104130007B68DA697B685B681046194601F062FDAE
:10414000034618464FF0000101F064FE0346002BC1
:1041500009D07B68DA697B685B681046194601F014
:1041600051FD03460AE07B68DB6983F000427B680F
:104170005B681046194601F045FD03462046194686
:1041800001F02AFE0346002B02D07B685B6925E024
:104190007B68DA697B685B681046194601F032FD7E
:1041A000034618464FF0000101F034FE0346002B91
:1041B00009D07B68DA697B685B681046194601F0B4
:1041C00021FD03460AE07B68DB6983F000427B68DF
:1041D0005B681046194601F015FD03467A68536185
:1041E0007B68DA687B681B691046194601F04CFB56
:1041F00003461A467B689A617B68DA687B681A61B5
:104200007B681A687B68DB681046194601F046FC3B
:1042100003461C467B685A687B685B6910461946F2
:1042200001F03CFC03462046194601F02FFB0346F3
:104230001C467B689A687B689B691046194601F0AA
:104240002DFC03462046194601F020FB03461A4682
:104250007B685A627B685A6A7B681B6A83F00043FA
:104260001046194601F0B8FD0346002B04D07B68C8
:104270001B6A83F0004301E07B685B6A7A685362E3
:104280007B685A6A7B681B6A1046194601F0A4FDD8
:104290000346002B02D07B685B6A01E07B681B6AE7
:1042A0007A6853620C37BD4690BD00BF0000000025
:1042B00090B583B000AF78607B689A6A7B68DB6AF0
:1042C0001046194601F0E0FA03461A467B68DA60A8
:1042D00009E07B68DB681846774901F0D7FA0346A6
:1042E0001A467B68DA607B68DB68184600F08AFF54
:1042F00002460B46104619466BA3D3E9002301F092
:1043000047FA0346002BE4D109E07B68DB681846D6
:10431000694901F0B9FA03461A467B68DA607B689E
:10432000DB68184600F06EFF02460B461046194641
:104330005FA3D3E9002301F049FA0346002BE4D13F
:104340007B685A697B68DB681046194601F09EFA63
:1043500003461A467B685A617B685C697B68DA6948
:104360007B685B681046194601F04CFC0346184612
:104370004FF0000101F04EFD0346002B0BD07B688F
:10438000DA697B685B681046194601F03BFC03461E
:1043900083F0004308E07B68DA697B685B6810465D
:1043A000194601F02FFC03462046194601F014FD82
:1043B0000346002B26D07B68DA697B685B68104671
:1043C000194601F01FFC034618464FF0000101F0AA
:1043D00021FD0346002B0BD07B68DA697B685B68A4
:1043E0001046194601F00EFC034683F000430BE033
:1043F0007B68DA697B685B681046194601F002FC4D
:10440000034601E07B685B697A6853617B685C699D
:104410007B68DA697B685B681046194601F0F2FB3D
:10442000034618464FF0000101F0F4FC0346002B50
:1044300009D07B68DA697B685B681046194601F031
:10444000E1FB03460AE07B68DB6983F000427B689E
:104450005B681046194601F0D5FB03462046194615
:1044600001F0BAFC0346002B02D07B685B6930E0A8
:104470007B68DA697B685B681046194601F0C2FB0D
:10448000034618464FF0000101F0C4FC0346002B20
:1044900014D07B68DA697B685B681046194601F0C6
:1044A000B1FB034615E000BF1F85EB51B81E09C0E4
:1044B0001F85EB51B81E0940DB0FC9407B68DB69E3
:1044C00083F000427B685B681046194601F09AFB56
:1044D00003467A6853617B68DA687B681B6910461B
:1044E000194601F0D1F903461A467B689A617B6848
:1044F000DA687B681A617B681A687B68DB6810463B
:10450000194601F0CBFA03461C467B685A687B6863
:104510005B691046194601F0C1FA03462046194668
:1045200001F0B4F903461C467B689A687B689B6976
:104530001046194601F0B2FA03462046194601F02A
:10454000A5F903461A467B685A627B685A6A7B68FB
:104550001B6A83F000431046194601F03DFC0346F8
:10456000002B04D07B681B6A83F0004301E07B686A
:104570005B6A7A6853627B685A6A7B681B6A10467A
:10458000194601F029FC0346002B02D07B685B6AC8
:1045900001E07B681B6A7A6853620C37BD4690BDA8
:1045A00080B582B000AF78607A685F4B9A4208D1DC
:1045B00001200121FCF7E4FA01200021FCF7E0FAD8
:1045C000AFE07B68B3F1804F08D101200121FCF7F7
:1045D000B9FA01200021FCF7B5FAA2E07A68534B42
:1045E0009A4208D102200121FCF7ACFA02200021F6
:1045F000FCF7A8FA95E07A684D4B9A4208D104205E
:104600000121FCF79FFA04200021FCF79BFA88E0C7
:104610007A68484B9A4208D108200121FCF792FAA7
:1046200008200021FCF78EFA7BE07A68424B9A4220
:1046300008D110200121FCF785FA10200021FCF799
:1046400081FA6EE07A683D4B9A4208D12020012120
:10465000FCF778FA20200021FCF774FA61E07A6810
:10466000374B9A4208D102200121FCF789FA022037
:104670000021FCF785FA54E07A68324B9A420AD15D
:104680004FF480300121FCF77BFA4FF48030002199
:10469000FCF776FA45E07A682B4B9A420AD14FF440
:1046A00000300121FCF76CFA4FF400300021FCF7D8
:1046B00067FA36E07A68254B9A420AD14FF4802097
:1046C0000121FCF75DFA4FF480200021FCF758FA35
:1046D00027E07A681E4B9A4208D140200121FCF75E
:1046E00031FA40200021FCF72DFA1AE07A68194BC4
:1046F0009A4208D180200121FCF724FA8020002171
:10470000FCF720FA0DE07A68134B9A4209D14FF476
:1047100080700121FCF716FA4FF480700021FCF73D
:1047200011FA0837BD4680BD00000140000400407A
:1047300000080040000C0040001000400014004041
:104740000004014000400140004401400048014095
:1047500000180040001C00400020004080B485B0DC
:1047600000AF786039600023FB817B681B88FB8188
:104770007A68284B9A4213D07A68274B9A420FD016
:104780007B68B3F1804F0BD07A68244B9A4207D0F4
:104790007A68234B9A4203D07A68224B9A4208D116
:1047A000FB8923F07003FB813B685A88FB89134324
:1047B000FB817A681C4B9A420CD07A681B4B9A4258
:1047C00008D0FB8923F44073FB813B681A89FB897D
:1047D0001343FB817B68FA891A803B685A687B68BF
:1047E000DA623B681A887B681A857A68094B9A42B4
:1047F00003D07A68084B9A4204D13B689B7A1A46E8
:104800007B681A867B6801229A821437BD465DF860
:10481000047B704700000140000401400004004098
:1048200000080040000C0040001000400014004050
:1048300080B483B000AF78607B685B6A18460C3741
:10484000BD465DF8047B704780B483B000AF7860EC
:104850000B46FB70FB78002B08D07B681B889BB253
:1048600043F080039AB27B681A8007E07B681B885C
:104870009BB223F080039AB27B681A800C37BD4646
:104880005DF8047B704700BF80B483B000AF7860F0
:104890000B46FB70FB78002B08D07B681B889BB213
:1048A00043F001039AB27B681A8007E07B681B889B
:1048B0009BB223F001039AB27B681A800C37BD4685
:1048C0005DF8047B704700BF80B485B000AF7860AE
:1048D000396000237B810023FB810023BB817B683F
:1048E0001B8C9BB223F001039AB27B681A847B680D
:1048F0001B8CFB817B689B88BB817B681B8B7B81CE
:104900007B8923F070037B817B8923F003037B8108
:104910003B681A887B8913437B81FB8923F0020360
:10492000FB813B689A89FB891343FB813B685A886A
:10493000FB891343FB817A681E4B9A4203D07A6845
:104940001D4B9A4223D1FB8923F00803FB813B686E
:10495000DA89FB891343FB81FB8923F00403FB8184
:104960003B689A88FB891343FB81BB8923F48073DE
:10497000BB81BB8923F40073BB813B681A8ABB8966
:104980001343BB813B685A8ABB891343BB817B6855
:10499000BA899A807B687A891A833B689A687B68AF
:1049A0005A637B68FA891A841437BD465DF8047B24
:1049B000704700BF000001400004014080B485B092
:1049C00000AF7860396000237B810023FB810023E6
:1049D000BB817B681B8C9BB223F010039AB27B686F
:1049E0001A847B681B8CFB817B689B88BB817B68FE
:1049F0001B8B7B817B8923F4E0437B817B8923F4C0
:104A000040737B813B681B881B029AB27B891343EE
:104A10007B81FB8923F02003FB813B689B891B0181
:104A20009AB2FB891343FB813B685B881B019AB2F6
:104A3000FB891343FB817A68224B9A4203D07A6840
:104A4000214B9A422BD1FB8923F08003FB813B68E9
:104A5000DB891B019AB2FB891343FB81FB8923F09D
:104A60004003FB813B689B881B019AB2FB8913437F
:104A7000FB81BB8923F48063BB81BB8923F4006382
:104A8000BB813B681B8A9B009AB2BB891343BB81E5
:104A90003B685B8A9B009AB2BB891343BB817B68EE
:104AA000BA899A807B687A891A833B689A687B689E
:104AB0009A637B68FA891A841437BD465DF8047BD3
:104AC000704700BF000001400004014080B485B081
:104AD00000AF7860396000237B810023FB810023D5
:104AE000BB817B681B8C9BB223F480739AB27B687A
:104AF0001A847B681B8CFB817B689B88BB817B68ED
:104B00009B8B7B817B8923F070037B817B8923F0E6
:104B100003037B813B681A887B8913437B81FB8974
:104B200023F40073FB813B689B891B029AB2FB89CB
:104B30001343FB813B685B881B029AB2FB891343DA
:104B4000FB817A68224B9A4203D07A68214B9A42C1
:104B50002BD1FB8923F40063FB813B68DB891B02BB
:104B60009AB2FB891343FB81FB8923F48063FB81A9
:104B70003B689B881B029AB2FB891343FB81BB896C
:104B800023F48053BB81BB8923F40053BB813B6872
:104B90001B8A1B019AB2BB891343BB813B685B8AAA
:104BA0001B019AB2BB891343BB817B68BA899A8087
:104BB0007B687A899A833B689A687B68DA637B684A
:104BC000FA891A841437BD465DF8047B704700BF2C
:104BD000000001400004014080B485B000AF78605F
:104BE00039600023BB8100237B810023FB817B682C
:104BF0001B8C9BB223F480539AB27B681A847B6827
:104C00001B8C7B817B689B88FB817B689B8BBB813A
:104C1000BB8923F4E043BB81BB8923F44073BB8190
:104C20003B681B881B029AB2BB891343BB817B89FB
:104C300023F400537B813B689B891B039AB27B89D9
:104C400013437B813B685B881B039AB27B891343C8
:104C50007B817A68114B9A4203D07A68104B9A4252
:104C60000AD1FB8923F48043FB813B681B8A9B01AB
:104C70009AB2FB891343FB817B68FA899A807B682F
:104C8000BA899A833B689A687B681A647B687A89D8
:104C90001A841437BD465DF8047B7047000001405C
:104CA0000004014080B485B000AF78600B467B8083
:104CB0000023FB817B681B8BFB81FB8923F00803AE
:104CC000FB81FA897B881343FB817B68FA891A830D
:104CD0001437BD465DF8047B704700BF80B485B0D3
:104CE00000AF78600B467B800023FB817B681B8BC9
:104CF000FB81FB8923F40063FB817B881B029AB252
:104D0000FB891343FB817B68FA891A831437BD46FC
:104D10005DF8047B704700BF80B485B000AF786059
:104D20000B467B800023FB817B689B8BFB81FB898F
:104D300023F00803FB81FA897B881343FB817B689E
:104D4000FA899A831437BD465DF8047B704700BF2B
:104D500080B485B000AF78600B467B800023FB8178
:104D60007B689B8BFB81FB8923F40063FB817B8841
:104D70001B029AB2FB891343FB817B68FA899A83F1
:104D80001437BD465DF8047B704700BF80B483B024
:104D900000AF78600B46FB70FB78002B0CD07B6873
:104DA000B3F844309BB26FEA43436FEA53439AB27D
:104DB0007B68A3F8442009E07B68B3F844309BB2D9
:104DC000C3F30E039AB27B68A3F844200C37BD46A8
:104DD0005DF8047B704700BF80B483B000AF78609B
:104DE00013460A467A807B707B78002B08D07B685C
:104DF0009B899AB27B8813439AB27B689A8109E0B7
:104E00007B689B899AB27B88DB439BB213409AB242
:104E10007B689A810C37BD465DF8047B704700BF04
:104E200080B483B000AF78600B467B807B687A8863
:104E30009A820C37BD465DF8047B704780B485B01C
:104E400000AF78600B467B800023FB730023BB819F
:104E500000237B817B681B8A9AB27B881340BB81CD
:104E60007B689B899AB27B8813407B81BB89002B2E
:104E700005D07B89002B02D00123FB7301E00023C6
:104E8000FB73FB7B18461437BD465DF8047B704707
:104E900080B483B000AF78600B467B807B88DB43B7
:104EA0009AB27B681A820C37BD465DF8047B704766
:104EB00080B487B000AFF86079813A81FB8000232D
:104EC000FB820023BB8200237B82FB681B89FB8261
:104ED000FB681B8BBB82FB681B8C7B82FB8A23F0ED
:104EE0000703FB82FA8A7B891343FB82BB8A23F484
:104EF000407323F00303BB82BB8A43F4807343F007
:104F00000103BB827B8A23F022037B82FB881B0187
:104F10009AB23B8913439AB27B8A13437B82FB6824
:104F2000FA8A1A81FB68BA8A1A83FB687A8A1A8419
:104F30001C37BD465DF8047B704700BF81F000411F
:104F400002E000BF83F0004330B54FEA41044FEA6E
:104F5000430594EA050F08BF90EA020F1FBF54EA09
:104F6000000C55EA020C7FEA645C7FEA655C00F0A5
:104F7000E2804FEA5454D4EB5555B8BF6D420CDD76
:104F80002C4480EA020281EA030382EA000083EAF9
:104F9000010180EA020281EA0303362D88BF30BD99
:104FA00011F0004F4FEA01314FF4801C4CEA1131EF
:104FB00002D0404261EB410113F0004F4FEA03334E
:104FC0004CEA133302D0524263EB430394EA050FD9
:104FD00000F0A780A4F10104D5F1200E0DDB02FA48
:104FE0000EFC22FA05F2801841F1000103FA0EF2DC
:104FF000801843FA05F359410EE0A5F120050EF1A2
:10500000200E012A03FA0EFC28BF4CF0020C43FAD2
:1050100005F3C01851EBE37101F0004507D54FF0DF
:10502000000EDCF1000C7EEB00006EEB0101B1F52F
:10503000801F1BD3B1F5001F0CD349085FEA300075
:105040004FEA3C0C04F101044FEA445212F5800F80
:1050500080F09A80BCF1004F08BF5FEA500C50F11D
:10506000000041EB045141EA050130BD5FEA4C0C00
:10507000404141EB010111F4801FA4F10104E9D189
:1050800091F0000F04BF01460020B1FA81F308BF80
:105090002033A3F10B03B3F120020CDA0C3208DD4C
:1050A00002F1140CC2F10C0201FA0CF021FA02F127
:1050B0000CE002F11402D8BFC2F1200C01FA02F197
:1050C00020FA0CFCDCBF41EA0C019040E41AA2BFBC
:1050D00001EB0451294330BD6FEA04041F3C1CDA84
:1050E0000C340EDC04F11404C4F1200220FA04F0A4
:1050F00001FA02F340EA030021FA04F345EA03014E
:1051000030BDC4F10C04C4F1200220FA02F001FA0F
:1051100004F340EA0300294630BD21FA04F0294691
:1051200030BD94F0000F83F4801306BF81F480112A
:105130000134013D4EE77FEA645C18BF7FEA655C9D
:1051400029D094EA050F08BF90EA020F05D054EA6F
:10515000000C04BF1946104630BD91EA030F1EBF74
:105160000021002030BD5FEA545C05D14000494178
:1051700028BF41F0004130BD14F580043CBF01F56B
:10518000801130BD01F0004545F0FE4141F4700151
:105190004FF0000030BD7FEA645C1ABF194610462C
:1051A0007FEA655C1CBF0B46024650EA013406BF2D
:1051B00052EA033591EA030F41F4002130BD00BFEC
:1051C00090F0000F04BF0021704730B54FF48064A9
:1051D00004F132044FF000054FF0000150E700BF2A
:1051E00090F0000F04BF0021704730B54FF4806489
:1051F00004F1320410F0004548BF40424FF0000176
:105200003EE700BF42004FEAE2014FEA31014FEAB8
:1052100002701FBF12F07F4393F07F4F81F0605107
:10522000704792F0000F14BF93F07F4F704730B576
:105230004FF4607401F0004521F0004120E700BF09
:1052400050EA010208BF704730B54FF000050AE090
:1052500050EA010208BF704730B511F0004502D591
:10526000404261EB41014FF4806404F132045FEA93
:10527000915C3FF4DCAE4FF003025FEADC0C18BF38
:1052800003325FEADC0C18BF033202EBDC02C2F12E
:10529000200300FA03FC20FA02F001FA03FE40EAC0
:1052A0000E0021FA02F11444C1E600BF70B54FF0C0
:1052B000FF0C4CF4E06C1CEA11541DBF1CEA1355A2
:1052C00094EA0C0F95EA0C0F00F0DEF82C4481EA0A
:1052D000030621EA4C5123EA4C5350EA013518BF2A
:1052E00052EA033541F4801143F4801338D0A0FB17
:1052F00002CE4FF00005E1FB02E506F00042E0FBC4
:1053000003E54FF00006E1FB03569CF0000F18BFC9
:105310004EF0010EA4F1FF04B6F5007F64F5407471
:1053200004D25FEA4E0E6D4146EB060642EAC62104
:1053300041EA55514FEAC52040EA5E504FEACE2E71
:10534000B4F1FD0C88BFBCF5E06F1ED8BEF1004F74
:1053500008BF5FEA500E50F1000041EB045170BDF0
:1053600006F0004646EA010140EA020081EA030134
:10537000B4EB5C04C2BFD4EB0C0541EA045170BD30
:1053800041F480114FF0000E013C00F3AB8014F1AA
:10539000360FDEBF002001F0004170BDC4F10004F3
:1053A000203C35DA0C341BDC04F11404C4F1200574
:1053B00000FA05F320FA04F001FA05F240EA0200CF
:1053C00001F0004221F0004110EBD37021FA04F605
:1053D00042EB06015EEA430E08BF20EAD37070BDBF
:1053E000C4F10C04C4F1200500FA04F320FA05F01E
:1053F00001FA04F240EA020001F0004110EBD37020
:1054000041F100015EEA430E08BF20EAD37070BD8F
:10541000C4F1200500FA05F24EEA020E20FA04F368
:1054200001FA05F243EA020321FA04F001F0004117
:1054300021FA04F220EA020000EBD3705EEA430E88
:1054400008BF20EAD37070BD94F0000F0FD101F0B7
:105450000046400041EB010111F4801F08BF013CF0
:10546000F7D041EA060195F0000F18BF704703F02E
:105470000046520043EB030313F4801F08BF013DB5
:10548000F7D043EA0603704794EA0C0F0CEA135571
:1054900018BF95EA0C0F0CD050EA410618BF52EA2B
:1054A0004306D1D181EA030101F000414FF0000031
:1054B00070BD50EA410606BF1046194652EA43063F
:1054C00019D094EA0C0F02D150EA013613D195EAB3
:1054D0000C0F05D152EA03361CBF104619460AD1FB
:1054E00081EA030101F0004141F0FE4141F4700105
:1054F0004FF0000070BD41F0FE4141F4780170BDF5
:1055000070B54FF0FF0C4CF4E06C1CEA11541DBF59
:105510001CEA135594EA0C0F95EA0C0F00F0A7F85B
:10552000A4EB050481EA030E52EA03354FEA013188
:1055300000F088804FEA03334FF0805545EA13139B
:1055400043EA12634FEA022245EA111545EA106563
:105550004FEA00260EF000419D4208BF964244F1FA
:10556000FD0404F5407402D25B084FEA3202B61A19
:1055700065EB03055B084FEA32024FF480104FF4ED
:10558000002CB6EB020E75EB030E22BFB61A754661
:1055900040EA0C005B084FEA3202B6EB020E75EBF4
:1055A000030E22BFB61A754640EA5C005B084FEA5C
:1055B0003202B6EB020E75EB030E22BFB61A754629
:1055C00040EA9C005B084FEA3202B6EB020E75EB34
:1055D000030E22BFB61A754640EADC0055EA060EF5
:1055E00018D04FEA051545EA16754FEA06164FEA38
:1055F000C30343EA52734FEAC2025FEA1C1CC0D1E4
:1056000011F4801F0BD141EA00014FF000004FF070
:10561000004CB6E711F4801F04BF01430020B4F131
:10562000FD0C88BFBCF5E06F3FF6AFAEB5EB030CE9
:1056300004BFB6EB020C5FEA500C50F1000041EBE6
:10564000045170BD0EF0004E4EEA113114EB5C04B3
:10565000C2BFD4EB0C0541EA045170BD41F4801186
:105660004FF0000E013C90E645EA060E8DE60CEA8E
:10567000135594EA0C0F08BF95EA0C0F3FF43BAFAB
:1056800094EA0C0F0AD150EA01347FF434AF95EA62
:105690000C0F7FF425AF104619462CE795EA0C0F46
:1056A00006D152EA03353FF4FDAE1046194622E713
:1056B00050EA410618BF52EA43067FF4C5AE50EAED
:1056C00041047FF40DAF52EA43057FF4EBAE12E7DD
:1056D0004FF0FF3C06E000BF4FF0010C02E000BFBE
:1056E0004FF0010C4DF804CD4FEA410C7FEA6C5CA1
:1056F0004FEA430C18BF7FEA6C5C1BD001B050EA44
:10570000410C0CBF52EA430C91EA030F02BF90EA2E
:10571000020F0020704710F1000F91EA030F58BFED
:10572000994208BF90422CBFD8176FEAE37040F04F
:10573000010070474FEA410C7FEA6C5C02D150EAED
:10574000013C07D14FEA430C7FEA6C5CD6D152EAA8
:10575000033CD3D05DF8040B704700BF844610466D
:1057600062468C461946634600E000BF01B5FFF76C
:10577000B7FF002848BF10F1000F01BD4DF808ED3C
:10578000FFF7F4FF0CBF012000205DF808FB00BF0D
:105790004DF808EDFFF7EAFF34BF012000205DF867
:1057A00008FB00BF4DF808EDFFF7E0FF94BF0120B4
:1057B00000205DF808FB00BF4DF808EDFFF7CEFFB5
:1057C00094BF012000205DF808FB00BF4DF808EDF4
:1057D000FFF7C4FF34BF012000205DF808FB00BFC5
:1057E0004FEA4102B2F1E04324BFB3F5001CDCF103
:1057F000FE5C0DD901F0004C4FEAC0024CEA50703B
:10580000B2F1004F40EB830008BF20F00100704769
:1058100011F0804F21D113F13872BCBF01F000406C
:10582000704741F480114FEA5252C2F11802C2F19E
:10583000200C10FA0CF320FA02F018BF40F001001F
:105840004FEAC1234FEAD32303FA0CFC40EA0C00D1
:1058500023FA02F34FEA4303CCE77FEA625307D10E
:1058600050EA01331EBF4FF0FE4040F44000704745
:1058700001F0004040F0FE4040F40000704700BFDF
:1058800080F0004002E000BF81F0004142001FBFF5
:105890005FEA410392EA030F7FEA226C7FEA236CFE
:1058A0006AD04FEA1262D2EB1363C1BFD2184140F3
:1058B00048404140B8BF5B42192B88BF704710F089
:1058C000004F40F4000020F07F4018BF404211F02C
:1058D000004F41F4000121F07F4118BF494292EA94
:1058E000030F3FD0A2F1010241FA03FC10EB0C00C0
:1058F000C3F1200301FA03F100F0004302D549424D
:1059000060EB4000B0F5000F13D3B0F1807F06D3F9
:1059100040084FEA310102F10102FE2A51D2B1F1F1
:10592000004F40EBC25008BF20F0010040EA0300E6
:105930007047490040EB000010F4000FA2F1010293
:10594000EDD1B0FA80FCACF1080CB2EB0C0200FA1D
:105950000CF0AABF00EBC25052421843BCBFD0406B
:105960001843704792F0000F81F4000106BF80F4E5
:1059700000000132013BB5E74FEA41037FEA226CA8
:1059800018BF7FEA236C21D092EA030F04D092F073
:10599000000F08BF0846704790EA010F1CBF0020A7
:1059A000704712F07F4F04D1400028BF40F0004004
:1059B000704712F100723CBF00F50000704700F024
:1059C000004343F0FE4040F4000070477FEA22624B
:1059D00016BF08467FEA23630146420206BF5FEA1C
:1059E000412390EA010F40F4800070474FF000031C
:1059F00004E000BF10F0004348BF40425FEA000CE3
:105A000008BF704743F0964301464FF000001CE08A
:105A100050EA010208BF70474FF000030AE000BFE0
:105A200050EA010208BF704711F0004302D540421E
:105A300061EB41015FEA010C02BF84460146002090
:105A400043F0B64308BFA3F18053A3F50003BCFAAB
:105A50008CF2083AA3EBC25310DB01FA02FC634458
:105A600000FA02FCC2F12002BCF1004F20FA02F25F
:105A700043EB020008BF20F00100704702F1200252
:105A800001FA02FCC2F1200250EA4C0021FA02F2B3
:105A900043EB020008BF20EADC7070474FF0FF0CB8
:105AA0001CEAD0521EBF1CEAD15392EA0C0F93EAB3
:105AB0000C0F6FD01A4480EA010C400218BF5FEA55
:105AC00041211ED04FF0006343EA501043EA5111C8
:105AD000A0FB01310CF00040B1F5000F3EBF4900C2
